:03000000020006F5
:20005F00750800750D0075157475166975176D751865751973751A20751B6F751C66751D6D
:1C007F0020751E50751F6F75207775216575227275234F75246E752500020003C2
:0300030002009B5D
:20009B001201927500087501007502407500057501009021F0120000AF080F8F087E007503
:2000BB0038648E398F828E83C007C0061203B0AC82D006D00774302CF50D753864753900E2
:2000DB008F828E83C007C00612037A75380A7539001203B0AC82D006D00774302CF50E757A
:2000FB00380A7539008F828E8312037AAE8274302EF50F7511007527157528007529407517
:20011B0026017582011201AA75270D7528007529407526067582021201AA9020001202B9F0
:17013B007531087532007533407534057535009021F012025D80FE88
:20015200C2B6D2B5D2B485A082C2B42275A0FF120152E58220E7F822AF82C00712015ED08F
:2001720007C2B6C2B58FA0D2B4C2B422AF82C00712015ED007D2B6C2B58FA0D2B4C2B4229E
:2001920075823812016A75820C12016A75820612016A75820102016AAF821FEF030354C0E9
:2001B200FFE526142F2480F58212016AAD27AE28AF298D828E838FF012035EFC60188C8232
:1701D2000DBD00010EC007C006C00512017ED005D006D00780DC225A
:2001E900D2AF75E70075E50075E60022C2AF75E64675E6B922AE82AF8375E20075E5017571
:20020900E782AB2AAC2BAD2C852D2F852E30A82FAA30152F74FFB52F021530E84A60328F3D
:20022900E38EE4C007C006C005C004C003120000D003D004D005D006D0070EBE00010F8BE5
:20024900828C838DF0E5E21202CDA3AB82AC8380BD020000AE82AF8375E78275E502AB3129
:20026900AC32AD33853436853537A836AA37153674FFB536021537E84A60328FE38EE48BEE
:20028900828C838DF012035EF5E2A3AB82AC830EBE00010FC007C006C005C004C003120037
:2002A90000D003D004D005D006D00780BD020000AE82AF8375E78275E5038FE38EE312003B
:0402C900000201E945
:06003500E478FFF6D8FD9F
:200013007900E94400601B7A009003EC780175A000E493F2A308B8000205A0D9F4DAF275A4
:02003300A0FF2C
:1B02CD0020F71130F6138883A88220F509F6A8837583002280FEF280F5F02230
:2002E800E538453960467A01E53825E0F538E539334012F539E5829538E583953940030A63
:2003080080E6C3E53913F539E53813F538C3E5829538F5F0E58395394005F58385F082C367
:0D032800E53913F539E53813F538DAE1222F
:20003B007800E84400600A790175A000E4F309D8FC7800E84400600C7900900001E4F0A3C3
:04005B00D8FCD9FAFA
:200335007A10E4FBFCE58225E0F582E58333F583EB33FBEC33FCEB9538F5F0EC953940067C
:09035500FCABF0438201DADD2269
:0D0006007581391203E8E5826003020003F2
:1C035E0020F71430F6148883A88220F507E6A88375830022E280F7E49322E022AE
:20037A00C2D5E58330E70DD2D5E4C39582F582E49583F583E53930E70BE4C39538F538E42B
:16039A009539F5391202E830D50BE4C39582F582E49583F583227A
:2003B000C2D5E58330E70DD2D5E4C39582F582E49583F583E53930E70DB2D5E4C39538F588
:1803D00038E49539F53912033530D50BE4C39582F582E49583F58322D8
:0403E80075820022F8
:00000001FF
