:0400000002001132B7
:03000B000200F2FE
:20006A007518007508DF7509CF750AEF750B5F750C7F750D3F750EBF750F9F7510B4E4F5BB
:10008A0011F512F513F514F515F516F51702000E0C
:03000E0002009A53
:20009A0075A000D286C286AE11E512C454F0CEC4CE6ECE54F0CE6EFFE510C4540F4EFEE56B
:2000BA0010C454F0FD7C00751968751A01E4F51BF51C8C828D838EF0EF1201378582148595
:2000DA00831585F016F517758901758ACD758CF8D28CD2A9D2AF80FEC0E0C001C0D075D005
:2000FA0000758ACD758CF8E5144515451645176025E5182408F987A0051874F82518500330
:1D011A00751800151474FFB5140C1515B515071516B516021517D0D0D001D0E03258
:20013700FB7A20E4FCFDFEFFE5822582F582E58333F583E5F033F5F0EB33FB4017DAE98001
:2001570042E5822582F582E58333F583E5F033F5F0EB33FBEC33FCED33FDEE33FEEF33FF30
:20017700EC9519ED951AEE951BEF951C4013EC9519FCED951AFDEE951BFEEF951CFF438272
:0501970001DABEEB22BD
:06004000E478FFF6D8FD94
:20001E007900E94400601B7A009001A0780175A000E493F2A308B8000205A0D9F4DAF275E7
:02003E00A0FF21
:200046007800E84400600A790175A000E4F309D8FC7800E84400600C7900900001E4F0A3B8
:04006600D8FCD9FAEF
:0D00110075811C12019CE582600302000E47
:04019C007582002246
:00000001FF
