:0400000002001932AF
:01000B0032C2
:0300130002025195
:07007200E4F508F509F50AA9
:03007C0002001669
:0300160002007F66
:20007F00D2901202D9120330750C5C750D04750E80750B027582011202F1750C69750D0478
:20009F00750E80750B017582021202F1E50F60FC750F00AF12BF0703020177BF080302011A
:2000BF00DFBF090302018FBF0C030201BEBF0D030201B3BF1503020183BF160302019BBF3F
:2000DF0018030201C9BF19030201A7BF1C030201EABF4002806ABF4203020200BF43028053
:2000FF006BBF4402804EBF45028025BF4602802CBF47028033BF4A03020216BF520302024C
:20011F000BBF5A030201F5BF5E030201D402022175086F750904750A8002022A7508737585
:20013F000904750A8002022A750876750904750A8002022A75087A750904750A8002022A1E
:20015F0075087F750904750A8002022A750884750904750A8002022A75088F750904750A18
:20017F008002022A750891750904750A8002022A750893750904750A8002022A75089675AE
:20019F000904750A8002022A750898750904750A8002022A75089D750904750A80806C7546
:2001BF0008A2750904750A8080617508A4750904750A8080567508A6750904750A80804B2D
:2001DF007508A8750904750A8080407508AA750904750A8080357508AC750904750A808013
:2001FF002A7508AE750904750A80801F7508B0750904750A8080147508B2750904750A8079
:20021F0080097508B4750904750A80750CBB750D04750E80750B057582021202F1750B05B7
:20023F0085080C85090D850A0E7582021202F10200ABC020C0E0C0F0C082C083C007C006E1
:20025F00C005C004C003C002C001C000C0D075D000209004D2908002C29012037BD0D0D031
:1A027F0000D001D002D003D004D005D006D007D083D082D0F0D0E0D0203262
:20045C004E6562756C612D5069204952004B45593A200043482D0043480043482B005052AA
:20047C004556004E45585400504C41592F5041555345002D002B0045510030003130302BC9
:20049C00003230302B003100320033003400350036003700380039006572726F722100203B
:0D04BC0020202020202020202020202000B3
:20029900C2B6D2B5D2B485A082C2B42275A0FF120299E58220E7F822AF82C0071202A5D0B7
:2002B90007C2B6C2B58FA0D2B4C2B422AF82C0071202A5D007D2B6C2B58FA0D2B4C2B4220E
:2002D9007582381202B175820C1202B17582061202B17582010202B1AF821FEF030354C081
:2002F900FFE50B142F2480F5821202B1AD0CAE0DAF0E8D828E838FF012043CFC60188C822F
:170319000DBD00010EC007C006C0051202C5D005D006D00780DC22C9
:03007900750F0000
:20033000D2B35389F0438901C28CC2A9758A0C758C22D28AD2AAD2AF22AE82AF83758C00CA
:20035000758A00D28CA2B3E4337D00B5060AEDB50706E58C24C150EDC28CAF8C7E00AC8A03
:200370007D00EC2EF582ED3FF58322900000120349AE82AF83900001C007C006120349AC21
:2003900082AD83D006D007C3EE9440EF941F401874109E74279F4010EC94ACED940D4008C1
:2003B00074889C74139D5003C28B227E007F00900000C007C006120349AC82AD8390000148
:2003D000C005C004120349AA82AB83D004D005D006D007C3EC942CED9401401874BC9C74ED
:2003F000029D4010EA942CEB9401400874089A74079B5003C28B22E513C313F513E51213BE
:20041000F512E51113F511E51013F510C374149A74059B50034313800EBE00010FC3EE9466
:0C04300020EF94004089750F01C28B2260
:06004800E478FFF6D8FD8C
:200026007900E94400601B7A009004C9780175A000E493F2A308B8000205A0D9F4DAF275B3
:02004600A0FF19
:20004E007800E84400600A790175A000E4F309D8FC7800E84400600C7900900001E4F0A3B0
:04006E00D8FCD9FAE7
:0D001900758120120458E582600302001674
:1C043C0020F71430F6148883A88220F507E6A88375830022E280F7E49322E022CF
:040458007582002287
:00000001FF
