:20007500C2B6D2B5D2B485A082C2B42275A0FF120075E58220E7F822AF82C007120081D029
:2000950007C2B6C2B58FA0D2B4C2B422AF82C007120081D007D2B6C2B58FA0D2B4C2B4225A
:2000B50075823812008D75820C12008D75820612008D75820102008DAF821FEF030354C03F
:2000D500FFE508142F2480F58212008DAD09AE0AAF0B8D828E838FF0120356FC60188C826E
:1700F5000DBD00010EC007C006C0051200A1D005D006D00780DC2216
:20010C00AF828F061FEE600A000000000000000080F022C2B775823212010CD2B7758206BD
:20012C0012010C30B7FD75823202010CAF827D017E00C374089D74808EF063F08095F04065
:20014C002C74015FFCEFC313FFC2B70000EC24FF92B7758206C007C006C00512010CD005BF
:20016C00D006D007D2B70DBD00C80E80C5227F01EF24F7402BC2B70000D2B70000A2B7E402
:20018C0033FE758206C007C00612010CD006D007E50CC313FDEE035480FE4DF50C0F80D098
:2001AC00850C822212011F7582CC12013875824412013812011F7582CC1201387582BE1231
:1E01CC00013812017AAF82C00712017AAE82D0078E05E4FEFCEF2EF582EC3DF58322FB
:0400000002001132B7
:03000B000202C925
:0B006A00750F00E4F519F51A02000EF6
:03000E000201EA02
:2001EA00758901758A67758CFCD28CD2A9D2AF1200B5750976750A03750B80750803758285
:20020A00011200CDC3E51994E8E51A940340F5C2AFE4F519F51A1201B085820DE583F50E38
:20022A00C4C582C4540F6582C582540FC5826582C582F583751B0A751C001202E0AE827441
:20024A00302EF50F850D82E50EC4C582C4540F6582C582540FC5826582C582F583751B0AE1
:20026A00751C00120309AE8274302EF51075112E850D82E50EC423C582C423541F6582C5CF
:20028A0082541FC5826582C582F583751B0A751C00120309E5828583F045F0600575123574
:2002AA00800375123075130075090F750A00750B407508037582021200CDD2AF02020EC0FB
:1602CA00E0C0D0758A67758CFC0519E4B51902051AD0D0D0E032D8
:0C03760074656D706572617475726500CD
:2002E0007A10E4FBFCE58225E0F582E58333F583EB33FBEC33FCEB951BF5F0EC951C40060C
:09030000FCABF0438201DADD22BE
:06004000E478FFF6D8FD94
:20001E007900E94400601B7A00900382780175A000E493F2A308B8000205A0D9F4DAF27503
:02003E00A0FF21
:20030900E51B451C60467A01E51B25E0F51BE51C334012F51CE582951BE583951C40030A29
:2003290080E6C3E51C13F51CE51B13F51BC3E582951BF5F0E583951C4005F58385F082C3F4
:0D034900E51C13F51CE51B13F51BDAE12282
:200046007800E84400600A790175A000E4F309D8FC7800E84400600C7900900001E4F0A3B8
:04006600D8FCD9FAEF
:0D00110075811C120372E582600302000E6F
:1C03560020F71430F6148883A88220F507E6A88375830022E280F7E49322E022B6
:04037200758200226E
:00000001FF
