:03000000020006F5
:03005F0002000399
:0300030002008672
:20006200AE82AF83EE4F601B7C4E7D00EC24FFFAED34FFFB8A048B05EA4B70F01EBEFF016A
:200082001F80E122750800750900750A00750B00750C00750D00750E00750F0075100075BE
:2000A200110012017A7516019000001201D175130575140475158075120275820112019256
:2000C20090000A120062900000120201AF827E007517648E188F828E83C007C0061203C999
:2000E200AC82D006D00774302CF5087517647518008F828E83C007C00612039375170A7577
:2001020018001203C9AC82D006D00774302CF50975170A7518008F828E83120393AE8274AD
:18012200302EF50A75130875140075154075120375820212019280FEDF
:0F0405004143543234433058205445535421005E
:20013A00C2B6D2B5D2B485A082C2B42275A0FF12013AE58220E7F822AF82C007120146D0D7
:20015A0007C2B6C2B58FA0D2B4C2B422AF82C007120146D007D2B6C2B58FA0D2B4C2B422CE
:20017A0075823812015275820C120152758206120152758201020152AF821FEF030354C061
:20019A00FFE512142F2480F582120152AD13AE14AF158D828E838FF0120377FC60188C8299
:1701BA000DBD00010EC007C006C005120166D005D006D00780DC228A
:2001D100AE82AF83C007C0061202487582A0120270D006D0078F82C007C006120270D00603
:2001F100D0078E8212027085168212027002025CAE82AF83C007C0061202487582A012028C
:2002110070D006D0078F82C007C006120270D006D0078E821202701202487582A1120270D5
:120231007582011202AEAF82C00712025CD0078F82228F
:200243000000000022C281D282120243D281120243C282120243C28122C281C28212024303
:20026300D281120243D282120243C28122AF827E80EF5E7004C2828002D282C007C0061218
:200283000243D281120243D006D007C281EEC313FE70DED282120243D281A282E433FFC074
:2002A30007120243D007C2818F8222AF827E00D2827D80C007C006C005120243D005D0063C
:2002C300D007D281208207EDF4FC52068003ED4206C007C006C005120243D005D006D00730
:1E02E300C281EDC313FD70CBEF24FF9282C006120243D281120243D006C2818E822287
:06003500E478FFF6D8FD9F
:200013007900E94400601B7A00900414780175A000E493F2A308B8000205A0D9F4DAF2757B
:02003300A0FF2C
:20030100E517451860467A01E51725E0F517E518334012F518E5829517E583951840030A51
:2003210080E6C3E51813F518E51713F517C3E5829517F5F0E58395184005F58385F082C314
:0D034100E51813F518E51713F517DAE1229A
:20003B007800E84400600A790175A000E4F309D8FC7800E84400600C7900900001E4F0A3C3
:04005B00D8FCD9FAFA
:20034E007A10E4FBFCE58225E0F582E58333F583EB33FBEC33FCEB9517F5F0EC95184006A5
:09036E00FCABF0438201DADD2250
:0D000600758118120401E5826003020003F9
:1C03770020F71430F6148883A88220F507E6A88375830022E280F7E49322E02295
:20039300C2D5E58330E70DD2D5E4C39582F582E49583F583E51830E70BE4C39517F517E475
:1603B3009518F51812030130D50BE4C39582F582E49583F5832289
:2003C900C2D5E58330E70DD2D5E4C39582F582E49583F583E51830E70DB2D5E4C39517F5B1
:1803E90017E49518F51812034E30D50BE4C39582F582E49583F5832209
:0404010075820022DE
:00000001FF
