:03000000020006F5
:03005F0002000399
:030003000200F602
:20006200C2B6D2B5D2B485A082C2B422120062E58220E7F822AF82C00712006ED007C2B6F7
:20008200C2B58FA0D2B4C2B422AF82C00712006ED007D2B6C2B58FA0D2B4C2B422758238D0
:2000A20012007775820C120077758206120077758201020077AF821FEF030354C0FFE508ED
:2000C200142F2480F582120077AD09AE0AAF0B8D828E838FF0120126FC60188C820DBD00EB
:2000E200010EC007C006C00512008BD005D006D00780DC2275A000D286C28612009F75091C
:2001020046750A01750B807508037582011200B7750951750A01750B8075080375820212FC
:0401220000B780FEA4
:170146005A6861695A68755A6875005A616F4469616E536875690069
:06003500E478FFF6D8FD9F
:200013007900E94400601B7A0090015D780175A000E493F2A308B8000205A0D9F4DAF27535
:02003300A0FF2C
:20003B007800E84400600A790175A000E4F309D8FC7800E84400600C7900900001E4F0A3C3
:04005B00D8FCD9FAFA
:0D00060075810B120142E5826003020003C8
:1C01260020F71430F6148883A88220F507E6A88375830022E280F7E49322E022E8
:0401420075820022A0
:00000001FF
