:03000000020006F5
:03005F0002000399
:030003000200F9FF
:20006200C2B6D2B5D2B485A082C2B42275A0FF120062E58220E7F822AF82C00712006ED062
:2000820007C2B6C2B58FA0D2B4C2B422AF82C00712006ED007D2B6C2B58FA0D2B4C2B42280
:2000A20075823812007A75820C12007A75820612007A75820102007AAF821FEF030354C09E
:2000C200FFE508142F2480F58212007AAD09AE0AAF0B8D828E838FF0120129FC60188C82C3
:2000E2000DBD00010EC007C006C00512008ED005D006D00780DC2275A000D286C28612006C
:20010200A2750949750A01750B807508037582011200BA750954750A01750B807508037569
:0701220082021200BA80FE08
:170149005A6861695A68755A6875005A616F4469616E536875690066
:06003500E478FFF6D8FD9F
:200013007900E94400601B7A00900160780175A000E493F2A308B8000205A0D9F4DAF27532
:02003300A0FF2C
:20003B007800E84400600A790175A000E4F309D8FC7800E84400600C7900900001E4F0A3C3
:04005B00D8FCD9FAFA
:0D00060075810B120145E5826003020003C5
:1C01290020F71430F6148883A88220F507E6A88375830022E280F7E49322E022E5
:04014500758200229D
:00000001FF
