:03000000020006F5
:20005F00750841750954750A32750B34750C43750D32750E35750F36751020751157751299
:16007F00527513207514537515547516527517217518000200039B
:0300030002009563
:2000950012011075320075330575341090000875F0401201D9753700753805753910900046
:1B00B5001975F04012028A752E19752F00753040752D0175820112012880FE3B
:2000D000C2B6D2B5D2B485A082C2B42275A0FF1200D0E58220E7F822AF82C0071200DCD018
:2000F00007C2B6C2B58FA0D2B4C2B422AF82C0071200DCD007D2B6C2B58FA0D2B4C2B422A4
:200110007582381200E875820C1200E87582061200E87582010200E8AF821FEF030354C077
:20013000FFE52D142F2480F5821200E8AD2EAE2FAF308D828E838FF0120406FC60188C8272
:170150000DBD00010EC007C006C0051200FCD005D006D00780DC225F
:20016700AE82AF83C007C0061203327582A012035AD006D0078F82C007C00612035AD006AC
:20018700D0078E8212035A85318212035A020346AE82AF83C007C0061203327582A012032E
:2001A7005AD006D0078F82C007C00612035AD006D0078E8212035A1203327582A112035AAA
:2001C700758201120398AF82C007120346D0078F8222AD82AE83AFF0E534700122C007C0E4
:2001E70006C0051203327582A012035AE582D005D006D0076011C007C006C005120346D009
:2002070005D006D00780D6853382C007C006C00512035A85328212035AD005D006D0078D1D
:20022700028E038F04A934853235853336E960338A828B838CF0120406F8A3AA82AB83882F
:2002470082C004C003C002C00112035AD001D002D003D004190535E4B535020536E5355486
:200267003F70CA8A058B068C078934853532853633C007C006C005120346D005D006D00785
:200287000201DFAD82AE83AFF0C007C006C0051203327582A012035AE582D005D006D007EE
:2002A7006011C007C006C005120346D005D006D00780D6853882C007C006C00512035A85BC
:2002C700378212035A1203327582A112035AD005D006D007AC39EC24FE502A758200C007F4
:2002E700C006C005C004120398AB82D004D005D006D0078D828E838FF0EB1203EBA3AD821C
:20030700AE831C80D1758201C007C006C005120398AC82D005D006D0078D828E838FF0EC06
:060327001203EB02034685
:20032D000000000022C281D28212032DD28112032DC28212032DC28122C281C28212032D6C
:20034D00D28112032DD28212032DC28122AF827E80EF5E7004C2828002D282C007C0061257
:20036D00032DD28112032DD006D007C281EEC313FE70DED28212032DD281A282E433FFC0C8
:20038D000712032DD007C2818F8222AF827E00D2827D80C007C006C00512032DD005D0067B
:2003AD00D007D281208207EDF4FC52068003ED4206C007C006C00512032DD005D006D0075A
:1E03CD00C281EDC313FD70CBEF24FF9282C00612032DD28112032DD006C2818E8222C6
:06003500E478FFF6D8FD9F
:200013007900E94400601B7A00900426780175A000E493F2A308B8000205A0D9F4DAF27569
:02003300A0FF2C
:1B03EB0020F71130F6138883A88220F509F6A8837583002280FEF280F5F02211
:20003B007800E84400600A790175A000E4F309D8FC7800E84400600C7900900001E4F0A3C3
:04005B00D8FCD9FAFA
:0D00060075813A120422E5826003020003B6
:1C04060020F71430F6148883A88220F507E6A88375830022E280F7E49322E02205
:0404220075820022BD
:00000001FF
