:03000000020006F5
:08005F00E4F50AF50B020003B1
:0300030002006791
:20006700C280AF0A8FF005F07401800225E0D5F0FBF4F590D2807508D0750907150874FF21
:20008700B508021509E508450970F17508D0750907C37408950A7480850BF063F08095F064
:1300A7005007E4F50AF50B80B7050AE4B50AB1050B80AD35
:06003500E478FFF6D8FD9F
:200013007900E94400601B7A009000BE780175A000E493F2A308B8000205A0D9F4DAF275D5
:02003300A0FF2C
:20003B007800E84400600A790175A000E4F309D8FC7800E84400600C7900900001E4F0A3C3
:04005B00D8FCD9FAFA
:0D00060075810B1200BAE582600302000351
:0400BA007582002229
:00000001FF
