:03000000020006F5
:03005F0002000399
:0300030002007B7D
:20006200AE82AF83EE4F60100000000000000000001EBEFF011F80EC227508007509007576
:200082000A00750B00750C00750D00750E00750F0075100075110012016F75160190000021
:2000A2001201C67513FA7514037515807512027582011201879003E81200629000001201A0
:2000C200F6AF827E007517648E188F828E83C007C0061203BEAC82D006D00774302CF508B9
:2000E2007517647518008F828E83C007C00612038875170A7518001203BEAC82D006D00764
:2001020074302CF50975170A7518008F828E83120388AE8274302EF50A751308751400759E
:0D012200154075120375820212018780FEE0
:0F03FA004143543234433058205445535421006A
:20012F00C2B6D2B5D2B485A082C2B42275A0FF12012FE58220E7F822AF82C00712013BD0F8
:20014F0007C2B6C2B58FA0D2B4C2B422AF82C00712013BD007D2B6C2B58FA0D2B4C2B422E4
:20016F0075823812014775820C120147758206120147758201020147AF821FEF030354C098
:20018F00FFE512142F2480F582120147AD13AE14AF158D828E838FF012036CFC60188C82BA
:1701AF000DBD00010EC007C006C00512015BD005D006D00780DC22A0
:2001C600AE82AF83C007C00612023D7582A0120265D006D0078F82C007C006120265D0062F
:2001E600D0078E82120265851682120265020251AE82AF83C007C00612023D7582A01202C3
:2002060065D006D0078F82C007C006120265D006D0078E8212026512023D7582A112026517
:120226007582011202A3AF82C007120251D0078F8222B0
:200238000000000022C281D282120238D281120238C282120238C28122C281C2821202383A
:20025800D281120238D282120238C28122AF827E80EF5E7004C2828002D282C007C0061239
:200278000238D281120238D006D007C281EEC313FE70DED282120238D281A282E433FFC0A0
:2002980007120238D007C2818F8222AF827E00D2827D80C007C006C005120238D005D0065D
:2002B800D007D281208207EDF4FC52068003ED4206C007C006C005120238D005D006D00746
:1E02D800C281EDC313FD70CBEF24FF9282C006120238D281120238D006C2818E8222A8
:06003500E478FFF6D8FD9F
:200013007900E94400601B7A00900409780175A000E493F2A308B8000205A0D9F4DAF27586
:02003300A0FF2C
:2002F600E517451860467A01E51725E0F517E518334012F518E5829517E583951840030A5D
:2003160080E6C3E51813F518E51713F517C3E5829517F5F0E58395184005F58385F082C31F
:0D033600E51813F518E51713F517DAE122A5
:20003B007800E84400600A790175A000E4F309D8FC7800E84400600C7900900001E4F0A3C3
:04005B00D8FCD9FAFA
:200343007A10E4FBFCE58225E0F582E58333F583EB33FBEC33FCEB9517F5F0EC95184006B0
:09036300FCABF0438201DADD225B
:0D0006007581181203F6E582600302000305
:1C036C0020F71430F6148883A88220F507E6A88375830022E280F7E49322E022A0
:20038800C2D5E58330E70DD2D5E4C39582F582E49583F583E51830E70BE4C39517F517E480
:1603A8009518F5181202F630D50BE4C39582F582E49583F58322A0
:2003BE00C2D5E58330E70DD2D5E4C39582F582E49583F583E51830E70DB2D5E4C39517F5BC
:1803DE0017E49518F51812034330D50BE4C39582F582E49583F583221F
:0403F60075820022EA
:00000001FF
