:03000000020006F5
:07005F00E4F508F509F50ABC
:030069000200038F
:0300030002006C8C
:20006C0012027C1202D3750C37750D04750E80750B02758201120294750C44750D04750ECC
:20008C0080750B01758202120294E50F60FC750F00AF12BF0703020162BF08030201CABF99
:2000AC00090302017ABF0C030201A9BF0D0302019EBF150302016EBF1603020186BF18033E
:2000CC000201B4BF1903020192BF1C030201D5BF4002806ABF42030201EBBF4302806BBFAC
:2000EC004402804EBF45028025BF4602802CBF47028033BF4A03020201BF52030201F6BFEA
:20010C005A030201E0BF5E030201BF02020C75084A750904750A8002021575084E750904F3
:20012C00750A80020215750851750904750A80020215750855750904750A8002021575084A
:20014C005A750904750A8002021575085F750904750A8002021575086A750904750A8002BF
:20016C00021575086C750904750A8002021575086E750904750A80020215750871750904E4
:20018C00750A80020215750873750904750A80020215750878750904750A80806C75087D55
:2001AC00750904750A80806175087F750904750A808056750881750904750A80804B7508B7
:2001CC0083750904750A808040750885750904750A808035750887750904750A80802A7573
:2001EC000889750904750A80801F75088B750904750A80801475088D750904750A80800911
:20020C0075088F750904750A80750C96750D04750E80750B05758202120294750B0585086D
:10022C000C85090D850A0E75820212029402009645
:200437004E6562756C612D5069204952004B45593A200043482D0043480043482B005052CF
:200457004556004E45585400504C41592F5041555345002D002B0045510030003130302BEE
:20047700003230302B003100320033003400350036003700380039006572726F7221002060
:010497000064
:20023C00C2B6D2B5D2B485A082C2B42275A0FF12023CE58220E7F822AF82C007120248D0CE
:20025C0007C2B6C2B58FA0D2B4C2B422AF82C007120248D007D2B6C2B58FA0D2B4C2B422C8
:20027C0075823812025475820C120254758206120254758201020254AF821FEF030354C052
:20029C00FFE50B142F2480F582120254AD0CAE0DAF0E8D828E838FF0120417FC60188C820E
:1702BC000DBD00010EC007C006C005120268D005D006D00780DC2284
:03006600750F0013
:2002D300D2B35389F0438901D28CC2A9D28AD2AAD2AF22AE82AF83758C00758A00D28CA247
:2002F300B3E4337D00B5060AEDB50706E58C24C150EDC28CAF8C7E00AC8A7D00EC2EF58252
:20031300ED3FF58322C020C0E0C0F0C082C083C007C006C005C004C003C002C001C000C073
:20033300D075D0009000001202E6AE82AF83900001C007C0061202E6AC82AD83D006D00786
:20035300C3EE9440EF941F401874109E74279F4010EC94ACED940D400874889C74139D5051
:2003730005C28B0203FA7E007F00900000C007C0061202E6AC82AD83900001C005C004127B
:2003930002E6AA82AB83D004D005D006D007C3EC942CED9401401874BC9C74029D4010EA50
:2003B300942CEB9401400874149A74059B5004C28B8034E513C313F513E51213F512E5113A
:2003D30013F511E51013F510C374089A74079B50034313800EBE00010FC3EE9420EF940008
:2003F3004088750F01C28BD0D0D000D001D002D003D004D005D006D007D083D082D0F0D0DF
:04041300E0D02032E3
:06003500E478FFF6D8FD9F
:200013007900E94400601B7A00900498780175A000E493F2A308B8000205A0D9F4DAF275F7
:02003300A0FF2C
:20003B007800E84400600A790175A000E4F309D8FC7800E84400600C7900900001E4F0A3C3
:04005B00D8FCD9FAFA
:0D000600758120120433E5826003020003BF
:1C04170020F71430F6148883A88220F507E6A88375830022E280F7E49322E022F4
:0404330075820022AC
:00000001FF
