:03000000020006F5
:03005F0002000399
:0300030002006296
:170062001200B9750962750A02750B807508037582021200D180FE81
:080262002020484848484800EC
:20007900C2B6D2B5D2B485A082C2B42275A0FF120079E58220E7F822AF82C007120085D01D
:2000990007C2B6C2B58FA0D2B4C2B422AF82C007120085D007D2B6C2B58FA0D2B4C2B42252
:2000B90075823812009175820C120091758206120091758201020091AF821FEF030354C02B
:2000D900FFE508142F2480F582120091AD09AE0AAF0B8D828E838FF0120242FC60188C827B
:1700F9000DBD00010EC007C006C0051200A5D005D006D00780DC220E
:20011000AE82AF83C007C0061201877582A01201B1D006D0078F82C007C0061201B1D00606
:20013000D0078E821201B1850C821201B102019DAE82AF83C007C0061201877582A012015A
:20015000B1D006D0078F82C007C0061201B1D006D0078E821201B11201877582A11201B158
:120170007582011201EFAF82C00712019DD0078F8222D1
:200182000000000022C281D282120182D281120182C282120182C281020182C281C28212ED
:2001A2000182D281120182D282120182C28122AF827E80EF5E7004C2828002D282C007C0F3
:2001C20006120182D281120182D006D007C281EEC313FE70DED282120182D281A282E43323
:2001E200FFC007120182D007C2818F8222AF827E00D2827D80C007C006C005120182D00599
:20020200D006D007D281208207EDF4FC52068003ED4206C007C006C005120182D005D006B4
:20022200D007C281EDC313FD70CBEF24FF9282C006120182D281120182D006C2818E8222F3
:06003500E478FFF6D8FD9F
:200013007900E94400601B7A0090026A780175A000E493F2A308B8000205A0D9F4DAF27527
:02003300A0FF2C
:20003B007800E84400600A790175A000E4F309D8FC7800E84400600C7900900001E4F0A3C3
:04005B00D8FCD9FAFA
:0D00060075810C12025EE5826003020003AA
:1C02420020F71430F6148883A88220F507E6A88375830022E280F7E49322E022CB
:04025E007582002283
:00000001FF
